:040000008A11112828
:10000800FE00030EF6000408F7000A08F800831241
:1000180003137F08F9008A15972C8A15BB2A8A15BD
:100028006B238A118A155D228A118A157E228A110C
:100038008A1514258A11003083160313B70000307F
:10004800B6000030B5000030B4008B172B283A08F2
:10005800031D2F28C729BA01FF303805831203135F
:10006800E700033083160313390583120313E800EE
:10007800831603133B0883120313E9006907A03EA4
:100088008400670883138000840A680880000130B0
:10009800E700670883160313BB070A303B02031CFB
:1000A800562857285928BB0159280030E900003044
:1000B800E8000030E7000030E600EA010A306A0292
:1000C800031C672868286A28C628C6286A08831275
:1000D8000313E7006707A03E840083130008AA0003
:1000E800840A0008AB008A150D238A1183120313B2
:1000F8002D08C8002C08C7002B08C6002A08C50010
:1001080083160313690883120313CC0083160313A1
:10011800680883120313CB0083160313670883123E
:100128000313CA0083160313660883120313C90056
:100138008A1113248A1183120313480883160313A0
:10014800E90083120313470883160313E800831298
:100158000313460883160313E700831203134508A5
:1001680083160313E600013083120313E7006708C0
:1001780083160313EA070A306A02031CC428C52839
:100188006A28C628690883120313B100831603136B
:10019800680883120313B0008316031367088312D9
:1001A8000313AF0083160313660883120313AE000C
:1001B8004130AD002030AC000030AB000030AA0068
:1001C8008A1196268A11831203132D08D8002C0849
:1001D800D7002B08D6002A08D5008A15BC268A1114
:1001E80083120313560883160313DF01DF078312F4
:1001F8000313550883160313DE01DE073F3083120D
:100208000313C800C030C7000030C6000030C50066
:100218003D30B4004730B3002430B2007C30B10028
:10022800831603135E08D33E83120313AA008316B2
:1002380003135F080318013EFF3E83120313AB004C
:100248008A150D238A11831203132D08B8002C0870
:10025800B7002B08B6002A08B5008A1182258A1132
:10026800831203133408CC003308CB003208CA00C9
:100278003108C9008A1113248A118312031348080C
:1002880083160313B7008312031347088316031357
:10029800B60083120313460883160313B5008312AE
:1002A8000313450883160313B40041308312031364
:1002B800A300E030A2000030A1000030A0008316A7
:1002C8000313370883120313A70083160313360892
:1002D80083120313A600831603133508831203132E
:1002E800A50083160313340883120313A4008A118C
:1002F80076278A11031881298229912983120313E9
:100308000614BC30A0000030A1009030A2000130DB
:10031800A3008A153B238A119129831603133708F2
:1003280083120313A30083160313360883120313DF
:10033800A20083160313350883120313A100831642
:100348000313340883120313A0004130A700D030F0
:10035800A6000030A5000030A4008A1176278A1173
:100368000318B729B829C729831203130610BC300C
:10037800A0000030A100A130A2000130A3008A151E
:100388003B238A11C729CD3083120313A000003004
:10039800A1003430A2008030A3008A153B238A11C3
:1003A80083160313370883120313E300831603131A
:1003B800360883120313E2008316031335088312E9
:1003C8000313E10083160313340883120313E000B8
:1003D800CD30E7006708E4008A1144228A11DF3033
:1003E80083120313E700670883160313DB00433007
:1003F80083120313E700670883160313DC00B23087
:1004080083120313A0000130A100CD30A2000030F8
:10041800A3008A153B238A11BC3083120313E7001B
:100428006708A000B2308A15E0228A110B308A15BD
:100438009C238A1183160313EA0120306A02031CE5
:10044800262A272A292A2B282B286A08B23E840024
:10045800831700088A159C238A110130831203131D
:10046800E700670883160313EA0720306A02031CB3
:100478003E2A3F2A292A2B282B282B288A11112883
:1004880083160313E50108306502031C4C2A4D2A24
:100498004F2A5E2A5E2A013083120313E50065089D
:1004A80083160313E50708306502031C5C2A5D2ADE
:1004B8004F2A5E2A831203136308A3006208A2006E
:1004C8006108A1006008A0000030A7000030A60065
:1004D8000030A5000030A4008A1176278A1103187D
:1004E800762A772AAD2A2D3083120313E500831666
:1004F80003136508831203136407E6006608840083
:100508006508831380000130E5006508831603132E
:10051800E507BF3083120313B4008030B300003006
:10052800B2000030B1006308B8006208B700610883
:10053800B6006008B5008A1182258A118312031358
:100548003408E3003308E2003208E1003108E00033
:10055800AD2A831203136308B8006208B700610864
:10056800B6006008B5004230B400C830B3000030AF
:10057800B2000030B1008A1182258A118312031358
:100588003408CC003308CB003208CA003108C9004F
:100598003F30C8000030C7000030C6000030C5003A
:1005A8008A1113248A11831203134808D8004708B4
:1005B800D7004608D6004508D5008A15BC268A11FA
:1005C80083120313560883160313E301E307831208
:1005D8000313550883160313E201E207043083125C
:1005E8000313E500650883160313E400E0010B2CF0
:1005F800640883120313E5006508B1000030B000F9
:100608000030AF000030AE000A30AD008A150C246F
:100618008A11831203133008BB002F08BA002E0872
:10062800B9002D08B8008316031362088312031358
:10063800BC0083160313630883120313BD00003044
:10064800BD1BFF30BE00BF008A1558278A118312D0
:1006580003133808E600660883160313E1006408EC
:1006680083120313E5006508B1000030B0000030C4
:10067800AF000030AE000A30AD008A150C248A1194
:10068800831203133008BB002F08BA002E08B900E4
:100698002D08B80083160313620883120313BC00E5
:1006A80083160313630883120313BD000030BD1BB8
:1006B800FF30BE00BF008A152A268A118312031351
:1006C800390883160313E301E30783120313380879
:1006D80083160313E201E20765080B3A031D752B25
:1006E800762B8D2B2E3083120313E500831603130C
:1006F8006508831203136407E6006608840065082A
:10070800831380000130E500650883160313E507AD
:100718008D2B6108031D912BA82B6108303E831295
:100728000313E50083160313650883120313640794
:10073800E6006608840065088313800083160313A7
:10074800E0010314E00D022C6008031DAC2BBD2B47
:10075800303083120313E5008316031365088312F0
:1007680003136407E60066088400650883138000A5
:10077800022C8316031365080A3A0319C42BC52BE8
:10078800D62B203083120313E50083160313650864
:10079800831203136407E600660884006508831360
:1007A8008000022C30308312E5008316031365089D
:1007B800831203136407E600660884006508831340
:1007C80080000130E500650883160313E5072E3025
:1007D80083120313E50083160313650883120313BA
:1007E8006407E60066088400650880008316031322
:1007F800E0010314E00D022C022C022C01308312BC
:10080800E500650883160313E5070130E4020E309E
:100818006502031C102C112CFC2A122C08008312D0
:1008280003134508CD004608CE004708CF00480806
:10083800D00003104F0D500DD1005108D4004908C5
:10084800CD004A08CE004B08CF004C08D00003105A
:100858004F0D500DD1005108D3005408031D352CFD
:10086800462C5308540203183A2C3B2C502C5403A2
:10087800FF3A5307CD0021304D02031C442C452C70
:10088800502C462C4C08C8004B08C7004A08C60024
:100898004908C500812D812D5308031D542C642C53
:1008A800540853020318592C5A2C652C5303FF3A49
:1008B8005407CD0021304D02031C632C642C652C99
:1008C800812D0630CD004D08D200C81F6C2C6D2C30
:1008D8006E2CD217CC1F712C722C732C5217C71781
:1008E800FF30C505FF30C605FF30C7050030C80515
:1008F800CB17FF30C905FF30CA05FF30CB050030E4
:10090800CC055308540203188A2C8B2CBE2C8C2C33
:100918000130CD000310C90DCA0DCB0DCC0DCD0B88
:100928008E2C0130D3025308540603199C2C9D2C9D
:10093800B62C0130D20252080739031DA42CA52C6D
:100948008C2CB62CB62CB62C01300310C80CC70C56
:10095800C60CC50CFF3E031DA92C0130CD004D0867
:10096800D407B62C54085306031DBB2CBC2CA82C4A
:10097800F72CF72C540853020318C32CC42CF72C5B
:10098800C52C0130CD000310C50DC60DC70DC80D0F
:10099800CD0BC72C0130D402530854060319D52CAB
:1009A800D62CEF2C0130D20252080739031DDD2C5A
:1009B800DE2CC52CEF2CEF2CEF2C01300310CC0CC7
:1009C800CB0CCA0CC90CFF3E031DE22C0130CD0034
:1009D8004D08D307EF2C54085306031DF42CF52CAF
:1009E800E12CF72CF72CD21FFA2CFB2C122DFF3000
:1009F800C506FF30C606FF30C706FF30C8060130FF
:100A0800C507003003180130C6070030031801304D
:100A1800C707003003180130C807122D521F152DC3
:100A2800162D2D2DFF30C906FF30CA06FF30CB0624
:100A3800FF30CC060130C907003003180130CA075F
:100A4800003003180130CB07003003180130CC0701
:100A58002D2DD2014508C907460803110318013E88
:100A68000319372DCA07470803110318013E031954
:100A78003E2DCB07480803110318013E0319452DE5
:100A8800CC07CC1F482D492D632DFF30C906FF30F8
:100A9800CA06FF30CB06FF30CC060130C90700304C
:100AA80003180130CA07003003180130CB070030A3
:100AB80003180130CC07D2010314D20D632D4C0862
:100AC800A3004B08A2004A08A1004908A000540846
:100AD800CD004D08A4005208CE004E08A5008A1586
:100AE8009D258A11831203132308C8002208C70012
:100AF8002108C6002008C500812D080083120313B1
:100B08003108B9003208BA003308BB003408BC0009
:100B180003103B0D3C0DBD003D08BE00BE08031D83
:100B2800962D972DA12D0030B4000030B300003071
:100B3800B2000030B100952E952E3508B900360860
:100B4800BA003708BB003808BC0003103B0D3C0D49
:100B5800BD003D08C400C408031DB32DB42DBE2D2F
:100B68000030B4000030B3000030B2000030B100F3
:100B7800952E952E44087B3EB9003908BE073108EA
:100B8800B9003208BA003308BB003408BC0018307A
:100B98000310BC0CBB0CBA0CB90CFF3E031DCC2DCA
:100BA8003908BD003D08C4003508B9003608BA0048
:100BB8003708BB003808BC0018300310BC0CBB0C4D
:100BC800BA0CB90CFF3E031DE12D3908BD003D08E4
:100BD800C4068030B9003908C405B317B717FF3009
:100BE800B505FF30B605FF30B7050030B805003051
:100BF800C2000030C1000030C0000030BF00073024
:100C0800B9003908C300082E311C0B2E0C2E242ED7
:100C18003508BF07360803110318013E0319152EBE
:100C2800C007370803110318013E03191C2EC1071A
:100C3800380803110318013E0319232EC207242E76
:100C480001300310B40CB30CB20CB10CFF3E031D01
:100C5800252E0130B9000310B50DB60DB70DB80D2E
:100C6800B90B2F2E0130C302031D3B2E3C2E082E3C
:100C78003D2E1130B9003908C300422E311C452ED3
:100C8800462E5E2E3508BF07360803110318013EAD
:100C980003194F2EC007370803110318013E031923
:100CA800562EC107380803110318013E03195D2E9B
:100CB800C2075E2E01300310B40CB30CB20CB10C99
:100CC800FF3E031D5F2E01300310C20CC10CC00C87
:100CD800BF0CFF3E031D682E0130C302031D752E95
:100CE800762E422E772E4208A3004108A200400823
:100CF800A1003F08A0003E08B9003908A400440834
:100D0800BA003A08A5008A159D258A118312031393
:100D18002308B4002208B3002108B2002008B1005B
:100D2800952E0800831203132E08B2002F08B30073
:100D38003008B4003108B5000310340D350DB60085
:100D48003608BC00BC08031DAA2EAB2EB52E0030F9
:100D5800AD000030AC000030AB000030AA00752FA9
:100D6800752F2A08B2002B08B3002C08B4002D08F0
:100D7800B5000310340D350DB6003608BD00BD08AA
:100D8800031DC72EC82ED22E0030AD000030AC0097
:100D98000030AB000030AA00752F752F89303D0751
:100DA800B2003208BC022E08B2002F08B300300887
:100DB800B4003108B50018300310B50CB40CB30CEE
:100DC800B20CFF3E031DE02E3208B6003608BD0007
:100DD8002A08B2002B08B3002C08B4002D08B5006F
:100DE80018300310B50CB40CB30CB20CFF3E031D45
:100DF800F52E3208B6003608BD068030B20032083B
:100E0800BD05B017FF30AE05FF30AF05FF30B005A8
:100E18000030B105AC17FF30AA05FF30AB05FF3035
:100E2800AC050030AD052030B2003208BB001C2FE5
:100E38000130B2000310B70DB80DB90DBA0DB20BE1
:100E48001E2F2D083102031D332F2C083002031DDD
:100E5800332F2B082F02031D332F2A082E02031CC1
:100E6800362F372F472F2A08AE022B08031C2B0FCB
:100E7800AF022C08031C2C0FB0022D08031C2D0FE9
:100E8800B1023714472F0130B2000310AE0DAF0D79
:100E9800B00DB10DB20B492F0130BB02031D552F08
:100EA800562F1C2F572F3A08A3003908A2003808DC
:100EB800A1003708A0003C08B2003208A4003D0891
:100EC800B3003308A5008A159D258A1183120313E0
:100ED8002308AD002208AC002108AB002008AA00B6
:100EE800752F080083120313A31F7B2F7C2FAE2FAF
:100EF8000030A8000030A9000030AA008030AB0004
:100F08002009AC002109AD002209AE002309AF0079
:100F1800AC0A0319AD0A0319AE0A0319AF0A2C0863
:100F2800A8072D0803182D0F9A2F9B2FA9072E0805
:100F380003182E0FA02FA12FAA072F0803182F0A76
:100F4800AB072B08A3002A08A2002908A10028083B
:100F5800A000AE2FA71FB12FB22FE42F0030A8009A
:100F68000030A9000030AA008030AB002409AC0092
:100F78002509AD002609AE002709AF00AC0A031900
:100F8800AD0A0319AE0A0319AF0A2C08A8072D08E1
:100F980003182D0FD02FD12FA9072E0803182E0FB5
:100FA800D62FD72FAA072F0803182F0AAB072B080D
:100FB800A7002A08A6002908A5002808A400E42FED
:100FC8008030A3068030A70627082302031DF62FCA
:100FD80026082202031DF62F25082102031DF62FDD
:100FE800240820020318F92FFA2FFC2F0310FF2FD3
:100FF8000314FF2FFF2F0800FF1B0A2883137F18F5
:1010080083170008840A0319FF0A080008308A00B9
:101018000408840A820700342034203420344E34F3
:101028006F34773420344C346F3461346434693429
:101038006E34673420342034003430343134323460
:10104800333434343534363437343834393441343D
:101058004234433444344534463400342034203454
:1010680020342034203420342034203420342034D8
:1010780020342034203420342034203400345434B4
:1010880065346D34703420342034203420342034D6
:1010980020342034203420342034203420340034C8
:1014BA00831203138101F201EA01EB01F101080031
:1014CA0064008001840A0406031900340406662AAB
:1014DA007E088A007F0882008A156D228A1580009C
:1014EA00840A04087D0603190034FF0A0319FE0A58
:1014FA00712ACD3083120313A0000030A1000130FD
:10150A00A2008030A3008A153B238A15BC308312BF
:10151A000313A0000030A1001230A2008030A30003
:10152A008A153B238A150800463441344E34203448
:10153A002034203420342034203420342034203401
:10154A00203420344F344E340034463441344E343F
:10155A0020342034203420342034203420342034E1
:10156A00203420344F34463446340034F001F1013B
:10157A00F201F301F401EA01EB01EC01ED0183133D
:10158A00A0308400E0308A1565228A158317B230AC
:10159A008400D3308A1565228A15B230FD000A30DC
:1015AA00FE009930FF00903084008A1571228A1556
:1015BA0083018A11132883120313A2002208A100AF
:1015CA002108A300ED2A0130A1002108A307ED2A72
:1015DA002308840083178008031DF42AF52AE82AC1
:1015EA00F82AF82AF82A200884000130A007831371
:1015FA000008A100230884000130A30721088317EB
:10160A0080008008031D0A2B0B2BF82A0C2B0800DC
:10161A0083120313B001AB1F132B142B1E2BAA0921
:10162A00AB09AA0A0319AB0A0130AE002E08B007AB
:10163A001E2B2A08A0002B08A100A201A3019630A4
:10164A00AE002E08A4003008AF002F08A5008A15A6
:10165A009D258A15831203132308AD002208AC00C6
:10166A002108AB002008AA003A2B080083120313B2
:10167A002108AA01AA072008A901A907452B452B79
:10168A002308A5002208A4000130A2070318A30A10
:10169A002508FF00240884008A1500208A15A60060
:1016AA002A08A8002908A7000130A9070318AA0ACE
:1016BA00270884008317281C8313260880008008C3
:1016CA00031D682B692B452B6A2B08006030831693
:1016DA0003138F0081170113811201128111011165
:1016EA00811401108B130B178B160B128B110B1114
:1016FA008B100B100C178C120C128C110C118C10F5
:10170A000C10831203138C01013083160313850016
:10171A00831203138501083083160313860083128C
:10172A000313860181018A15D0238A1508008312C2
:10173A000313A2002208A0002008A400A42B8619E3
:10174A00A72BA82BA42BA30108302302031CAE2B22
:10175A00AF2BB12BCF2BCF2B86122418B52BB92B3D
:10176A00831203130615BC2B831203130611861664
:10177A002408A0000310200CA1002108A4000130B5
:10178A00A0002008A30708302302031CCD2BCE2B70
:10179A00B12BCF2B08000130831603139B00C030F6
:1017AA009F008030831203139F001F14F301F4017A
:1017BA0083160313B801B901BA01DE01DF018312EE
:1017CA000313A1010A302102031CEC2BED2BEF2B92
:1017DA00042C042C2108A0002007A03E840000301D
:1017EA0083138000840A003080000130A0002008A2
:1017FA00A1070A302102031C032C042CEF2B8316A9
:10180A000313BB01F001831203131F1108000030F8
:10181A0083120313B7000030B6000030B500013060
:10182A00B400B3013A2C3008A3002F08A2002E08F6
:10183A00A1002D08A0003708A7003608A600350821
:10184A00A5003408A4008A154B248A1583120313B1
:10185A002308B7002208B6002108B5002008B40002
:10186A000130B2003208B3073A2C31083302031CA4
:10187A003F2C402C182C412C3708B0003608AF00FA
:10188A003508AE003408AD004A2C08000030831237
:10189A000313AC000030AB000030AA000030A900EE
:1018AA00562C201C592C5A2C722C2408A9072508BE
:1018BA0003110318013E0319632CAA072608031112
:1018CA000318013E03196A2CAB07270803110318F2
:1018DA00013E0319712CAC07722C0130A8000310C9
:1018EA00A40DA50DA60DA70DA80B742C013003108D
:1018FA00A30CA20CA10CA00CFF3E031D7C2C2308F8
:10190A00220421042004031D8B2C8C2C562C8D2C94
:10191A002C08A3002B08A2002A08A1002908A0006D
:10192A00962C08000B1D9A2C9B2CEE2C0B11810176
:10193A000130F5007508F207F5307202031CA62C77
:10194A00A72CAA2CF2017117AA2C0130EA07031856
:10195A00EB0A0030EB0701306B02E93003196A0227
:10196A00031CB82CB92CDD2CEA01EB01F117F001AC
:10197A000314F00DDD2CDD2C740883160313B90152
:10198A00B9077308B801B807BA010314BA0DF00110
:10199A00EE2C1F150330F5007508F000EE2C02300E
:1019AA00F5007508F000EE2CEE2CEE2CEE2CEE2C49
:1019BA007008003A0319EE2C013A0319D42C033AA1
:1019CA000319CE2C013A0319EE2C073A0319C12C3C
:1019DA00EE2C83120C1FF22CF32C082D0C131F195A
:1019EA00F72CF82C082D1E08F5007508F40083164C
:1019FA0003131E08F5007508F3000430F500750896
:101A0A00F000082D082D79088312FF0078088A0053
:101A1A0077088400760E8300FE0E7E0E090083127C
:101A2A000313AC01182D86191B2D1C2D182D592DA9
:101A3A00592D06158616AD0164302D02031C262D7C
:101A4A00272D292D3B2D3B2D861D2C2D2D2D312D5E
:101A5A00AC010314AC0D312D0130AB002B08AD07DE
:101A6A0064302D02031C3A2D3B2D292D8612AD011F
:101A7A0064302D02031C422D432D452D592D592D1D
:101A8A00861D482D492D4D2DAC010314AC0D4D2D4D
:101A9A000130AB002B08AD0764302D02031C562D14
:101AAA00572D452D592D592D2C08031D5D2D1E2D01
:101ABA00061120308A159C238A1583120313AD015F
:101ACA0020302D02031C6A2D6B2D6D2D7E2D7E2D4F
:101ADA0020308A159C238A15013083120313AB0028
:101AEA002B08AD0720302D02031C7C2D7D2D6D2D7A
:101AFA007E2D0B308A159C238A15CD308312031351
:101B0A00A0000030A1002330A2008030A3008A1573
:101B1A003B238A15BC3083120313A0000030A100B6
:101B2A002330A2008030A3008A153B238A150800BF
:101B3A00831203132408031DA32DAC2D23082204AA
:101B4A0021042004031DAA2DAB2DC52DAC2D003078
:101B5A00A3000030A2000030A1000030A000292E0E
:101B6A00292EC52D0130A6002608A407013003102E
:101B7A00A30CA20CA10CA00CFF3E031DBC2DC52D6D
:101B8A00FE302305031DCA2DCB2DB72DE82DE82DD8
:101B9A000130A6002608A4070130A0070030031868
:101BAA000130A107003003180130A20700300318E2
:101BBA000130A30701300310A30CA20CA10CA00C46
:101BCA00FF3E031DE02DFF302305031DED2DEE2DF5
:101BDA00CD2DFC2DFC2D0130A4020130A6000310EE
:101BEA00A00DA10DA20DA30DA60BF42DFC2DA21F75
:101BFA00FF2D002EF02D2418032E042E0C2EFF305C
:101C0A00A005FF30A1057F30A205FF30A305031010
:101C1A00A40C2408A600A701A801A90118300310E2
:101C2A00A60DA70DA80DA90DFF3E031D142E26080B
:101C3A00A0042708A1042808A2042908A304250847
:101C4A00031D282E292EA317080083120313C2018D
:101C5A00BF1F302E312E402EBC09BD09BE09BF0957
:101C6A00BC0A0319BD0A0319BE0A0319BF0AC20135
:101C7A000314C20D402EBB1F432E442E502EB8090A
:101C8A00B909BA09BB09B80A0319B90A0319BA0A80
:101C9A000319BB0A502E3B083A04390438040319C5
:101CAA00572E582EA22EC1010314C10D6A2E0130DF
:101CBA00C0000310B80DB90DBA0DBB0DC00B5E2ED6
:101CCA000130C0004008C1076A2EBB1F6D2E6E2E60
:101CDA005C2E702E702E3B083F02031D7E2E3A08A2
:101CEA003E02031D7E2E39083D02031D7E2E380852
:101CFA003C02031C812E822E912E3808BC02390820
:101D0A00031C390FBD023A08031C3A0FBE023B08F6
:101D1A00031C3B0FBF02912E01300310BB0CBA0CFF
:101D2A00B90CB80CFF3E031D922E0130C102031DEF
:101D3A009F2EA02E702EA22EA22E4208031DA62E82
:101D4A00B22EBC09BD09BE09BF09BC0A0319BD0AE6
:101D5A000319BE0A0319BF0AB22E3F08BB003E0888
:101D6A00BA003D08B9003C08B800BB2E080083122F
:101D7A0003135508D9005608DA005708DB0058083B
:101D8A00DC0003105B0D5C0DDD005D08DF00DF0881
:101D9A00031DD02ED12EDB2E0030D8000030D70004
:101DAA000030D6000030D500572F572F5508D900DC
:101DBA005608DA005708DB005808DC001F30031009
:101DCA00DC0CDB0CDA0CD90CFF3E031DE42E59089F
:101DDA00DD005D08DE00D717FF30D505FF30D605D8
:101DEA00FF30D7050030D8059630DF02DF1FFE2E00
:101DFA00FF2E242F5F08803A973E0318052F062FDF
:101E0A00112F0030D8000030D7000030D600003043
:101E1A00D500572F572F112F01300310D80CD70C8C
:101E2A00D60CD50CFF3E031D122F0130D9005908DC
:101E3A00DF07031D212F222F112F482F482F203073
:101E4A005F02031C292F2A2F412F0030D8000030AF
:101E5A00D7000030D6000030D500572F572F412F1A
:101E6A000130D9000310D50DD60DD70DD80DD90BD9
:101E7A00372F0130DF02412FDF08031D452F462F80
:101E8A00352F482F482F5E08031D4C2F572FD50991
:101E9A00D609D709D809D50A0319D60A0319D70AC0
:101EAA000319D80A080083120313C201BB1F5E2F4D
:101EBA005F2F6E2FB809B909BA09BB09B80A031905
:101ECA00B90A0319BA0A0319BB0AC2010314C20DDB
:101EDA006E2FBF1F712F722F822FBC09BD09BE0939
:101EEA00BF09BC0A0319BD0A0319BE0A0319BF0AAE
:101EFA000130C0004008C206822F0030C600003000
:101F0A00C5000030C4000030C3003B083A0439045D
:101F1A0038040319912F922FE62FC1010314C10D22
:101F2A00A42F0130C0000310B80DB90DBA0DBB0DB6
:101F3A00C00B982F0130C0004008C107A42FBB1F57
:101F4A00A72FA82F962FAA2FAA2F0130C00003105F
:101F5A00C30DC40DC50DC60DC00BAC2F3B083F0207
:101F6A00031DC12F3A083E02031DC12F39083D0245
:101F7A00031DC12F38083C02031CC42FC52FD52FBF
:101F8A003808BC023908031C390FBD023A08031C81
:101F9A003A0FBE023B08031C3B0FBF024314D52F66
:101FAA0001300310BB0CBA0CB90CB80CFF3E031D70
:101FBA00D62F0130C102031DE32FE42FAA2FE62FEB
:101FCA00E62F4208031DEA2FF62FC309C409C509E3
:101FDA00C609C30A0319C40A0319C50A0319C60A9A
:101FEA00F62F4608BB004508BA004408B900430862
:061FFA00B800FF2F0800F3
:04400E0010FFFDFFA3
:00000001FF
